{
  "_format": "hh-sol-artifact-1",
  "contractName": "SingleSwapToken",
  "sourceName": "contracts/SwapToken.sol",
  "abi": [
    {
      "inputs": [
        {
          "internalType": "address",
          "name": "token1",
          "type": "address"
        },
        {
          "internalType": "address",
          "name": "token2",
          "type": "address"
        },
        {
          "internalType": "uint256",
          "name": "amountIn",
          "type": "uint256"
        }
      ],
      "name": "swapExactInputSingle",
      "outputs": [
        {
          "internalType": "uint256",
          "name": "amountOut",
          "type": "uint256"
        }
      ],
      "stateMutability": "nonpayable",
      "type": "function"
    },
    {
      "inputs": [
        {
          "internalType": "address",
          "name": "token1",
          "type": "address"
        },
        {
          "internalType": "address",
          "name": "token2",
          "type": "address"
        },
        {
          "internalType": "uint256",
          "name": "amountOut",
          "type": "uint256"
        },
        {
          "internalType": "uint256",
          "name": "amountInMaximum",
          "type": "uint256"
        }
      ],
      "name": "swapExactOutputString",
      "outputs": [
        {
          "internalType": "uint256",
          "name": "amountIn",
          "type": "uint256"
        }
      ],
      "stateMutability": "nonpayable",
      "type": "function"
    },
    {
      "inputs": [],
      "name": "swapRouter",
      "outputs": [
        {
          "internalType": "contract ISwapRouter",
          "name": "",
          "type": "address"
        }
      ],
      "stateMutability": "view",
      "type": "function"
    }
  ],
  "bytecode": "0x608060405234801561001057600080fd5b50610e03806100206000396000f3fe608060405234801561001057600080fd5b50600436106100415760003560e01c80637fbbe70614610046578063c31c9c0714610076578063ceb9201214610094575b600080fd5b610060600480360381019061005b9190610a98565b6100c4565b60405161006d9190610d15565b60405180910390f35b61007e61025b565b60405161008b9190610cc2565b60405180910390f35b6100ae60048036038101906100a99190610a49565b610273565b6040516100bb9190610d15565b60405180910390f35b60006100d2853330856103e8565b6100dd853084610608565b60006040518061010001604052808773ffffffffffffffffffffffffffffffffffffffff1681526020018673ffffffffffffffffffffffffffffffffffffffff168152602001610bb862ffffff1681526020013373ffffffffffffffffffffffffffffffffffffffff168152602001428152602001858152602001848152602001600073ffffffffffffffffffffffffffffffffffffffff16815250905073e592427a0aece92de3edee1f18e0157c0586156473ffffffffffffffffffffffffffffffffffffffff1663db3e2198826040518263ffffffff1660e01b81526004016101c89190610cf9565b602060405180830381600087803b1580156101e257600080fd5b505af11580156101f6573d6000803e3d6000fd5b505050506040513d601f19601f8201168201806040525081019061021a9190610afb565b915082821015610252576102448673e592427a0aece92de3edee1f18e0157c058615646000610608565b6102518633848603610809565b5b50949350505050565b73e592427a0aece92de3edee1f18e0157c0586156481565b6000610281843330856103e8565b6102a08473e592427a0aece92de3edee1f18e0157c0586156484610608565b60006040518061010001604052808673ffffffffffffffffffffffffffffffffffffffff1681526020018573ffffffffffffffffffffffffffffffffffffffff168152602001610bb862ffffff1681526020013373ffffffffffffffffffffffffffffffffffffffff16815260200142815260200184815260200160008152602001600073ffffffffffffffffffffffffffffffffffffffff16815250905073e592427a0aece92de3edee1f18e0157c0586156473ffffffffffffffffffffffffffffffffffffffff1663414bf389826040518263ffffffff1660e01b815260040161038c9190610cdd565b602060405180830381600087803b1580156103a657600080fd5b505af11580156103ba573d6000803e3d6000fd5b505050506040513d601f19601f820116820180604052508101906103de9190610afb565b9150509392505050565b6000808573ffffffffffffffffffffffffffffffffffffffff166323b872dd60e01b868686604051602401808473ffffffffffffffffffffffffffffffffffffffff1681526020018373ffffffffffffffffffffffffffffffffffffffff1681526020018281526020019350505050604051602081830303815290604052907bffffffffffffffffffffffffffffffffffffffffffffffffffffffff19166020820180517bffffffffffffffffffffffffffffffffffffffffffffffffffffffff83818316178352505050506040518082805190602001908083835b602083106104e757805182526020820191506020810190506020830392506104c4565b6001836020036101000a0380198251168184511680821785525050505050509050019150506000604051808303816000865af19150503d8060008114610549576040519150601f19603f3d011682016040523d82523d6000602084013e61054e565b606091505b509150915081801561058e575060008151148061058d575080806020019051602081101561057b57600080fd5b81019080805190602001909291905050505b5b610600576040517f08c379a00000000000000000000000000000000000000000000000000000000081526004018080602001828103825260038152602001807f535446000000000000000000000000000000000000000000000000000000000081525060200191505060405180910390fd5b505050505050565b6000808473ffffffffffffffffffffffffffffffffffffffff1663095ea7b360e01b8585604051602401808373ffffffffffffffffffffffffffffffffffffffff16815260200182815260200192505050604051602081830303815290604052907bffffffffffffffffffffffffffffffffffffffffffffffffffffffff19166020820180517bffffffffffffffffffffffffffffffffffffffffffffffffffffffff83818316178352505050506040518082805190602001908083835b602083106106e957805182526020820191506020810190506020830392506106c6565b6001836020036101000a0380198251168184511680821785525050505050509050019150506000604051808303816000865af19150503d806000811461074b576040519150601f19603f3d011682016040523d82523d6000602084013e610750565b606091505b5091509150818015610790575060008151148061078f575080806020019051602081101561077d57600080fd5b81019080805190602001909291905050505b5b610802576040517f08c379a00000000000000000000000000000000000000000000000000000000081526004018080602001828103825260028152602001807f534100000000000000000000000000000000000000000000000000000000000081525060200191505060405180910390fd5b5050505050565b6000808473ffffffffffffffffffffffffffffffffffffffff1663a9059cbb60e01b8585604051602401808373ffffffffffffffffffffffffffffffffffffffff16815260200182815260200192505050604051602081830303815290604052907bffffffffffffffffffffffffffffffffffffffffffffffffffffffff19166020820180517bffffffffffffffffffffffffffffffffffffffffffffffffffffffff83818316178352505050506040518082805190602001908083835b602083106108ea57805182526020820191506020810190506020830392506108c7565b6001836020036101000a0380198251168184511680821785525050505050509050019150506000604051808303816000865af19150503d806000811461094c576040519150601f19603f3d011682016040523d82523d6000602084013e610951565b606091505b50915091508180156109915750600081511480610990575080806020019051602081101561097e57600080fd5b81019080805190602001909291905050505b5b610a03576040517f08c379a00000000000000000000000000000000000000000000000000000000081526004018080602001828103825260028152602001807f535400000000000000000000000000000000000000000000000000000000000081525060200191505060405180910390fd5b5050505050565b600081359050610a1981610d9f565b92915050565b600081359050610a2e81610db6565b92915050565b600081519050610a4381610db6565b92915050565b600080600060608486031215610a5e57600080fd5b6000610a6c86828701610a0a565b9350506020610a7d86828701610a0a565b9250506040610a8e86828701610a1f565b9150509250925092565b60008060008060808587031215610aae57600080fd5b6000610abc87828801610a0a565b9450506020610acd87828801610a0a565b9350506040610ade87828801610a1f565b9250506060610aef87828801610a1f565b91505092959194509250565b600060208284031215610b0d57600080fd5b6000610b1b84828501610a34565b91505092915050565b610b2d81610d30565b82525050565b610b3c81610d7b565b82525050565b61010082016000820151610b596000850182610b24565b506020820151610b6c6020850182610b24565b506040820151610b7f6040850182610c95565b506060820151610b926060850182610b24565b506080820151610ba56080850182610ca4565b5060a0820151610bb860a0850182610ca4565b5060c0820151610bcb60c0850182610ca4565b5060e0820151610bde60e0850182610c86565b50505050565b61010082016000820151610bfb6000850182610b24565b506020820151610c0e6020850182610b24565b506040820151610c216040850182610c95565b506060820151610c346060850182610b24565b506080820151610c476080850182610ca4565b5060a0820151610c5a60a0850182610ca4565b5060c0820151610c6d60c0850182610ca4565b5060e0820151610c8060e0850182610c86565b50505050565b610c8f81610d42565b82525050565b610c9e81610d62565b82525050565b610cad81610d71565b82525050565b610cbc81610d71565b82525050565b6000602082019050610cd76000830184610b33565b92915050565b600061010082019050610cf36000830184610b42565b92915050565b600061010082019050610d0f6000830184610be4565b92915050565b6000602082019050610d2a6000830184610cb3565b92915050565b6000610d3b82610d42565b9050919050565b600073ffffffffffffffffffffffffffffffffffffffff82169050919050565b600062ffffff82169050919050565b6000819050919050565b6000610d8682610d8d565b9050919050565b6000610d9882610d42565b9050919050565b610da881610d30565b8114610db357600080fd5b50565b610dbf81610d71565b8114610dca57600080fd5b5056fea2646970667358221220ddd5d27ceacee34decb594d7f959b70ebfb28eb9f367ef713628c98a266af29264736f6c63430007060033",
  "linkReferences": {},
  "deployedLinkReferences": {}
}