{
  "_format": "hh-sol-artifact-1",
  "contractName": "SwapMultiHop",
  "sourceName": "contracts/SwapMultiHop.sol",
  "abi": [
    {
      "inputs": [],
      "name": "DAI",
      "outputs": [
        {
          "internalType": "address",
          "name": "",
          "type": "address"
        }
      ],
      "stateMutability": "view",
      "type": "function"
    },
    {
      "inputs": [],
      "name": "USDC",
      "outputs": [
        {
          "internalType": "address",
          "name": "",
          "type": "address"
        }
      ],
      "stateMutability": "view",
      "type": "function"
    },
    {
      "inputs": [],
      "name": "WETH9",
      "outputs": [
        {
          "internalType": "address",
          "name": "",
          "type": "address"
        }
      ],
      "stateMutability": "view",
      "type": "function"
    },
    {
      "inputs": [
        {
          "internalType": "uint256",
          "name": "amountIn",
          "type": "uint256"
        }
      ],
      "name": "swapExactInputMultihop",
      "outputs": [
        {
          "internalType": "uint256",
          "name": "amountOut",
          "type": "uint256"
        }
      ],
      "stateMutability": "nonpayable",
      "type": "function"
    },
    {
      "inputs": [
        {
          "internalType": "uint256",
          "name": "amountOut",
          "type": "uint256"
        },
        {
          "internalType": "uint256",
          "name": "amountInMaximum",
          "type": "uint256"
        }
      ],
      "name": "swapExactOutputMultihop",
      "outputs": [
        {
          "internalType": "uint256",
          "name": "amountIn",
          "type": "uint256"
        }
      ],
      "stateMutability": "nonpayable",
      "type": "function"
    },
    {
      "inputs": [],
      "name": "swapRouter",
      "outputs": [
        {
          "internalType": "contract ISwapRouter",
          "name": "",
          "type": "address"
        }
      ],
      "stateMutability": "view",
      "type": "function"
    }
  ],
  "bytecode": "0x608060405234801561001057600080fd5b50610e9d806100206000396000f3fe608060405234801561001057600080fd5b50600436106100625760003560e01c80633b85cf6a146100675780634aa4a4fc1461009757806389a30271146100b5578063c31c9c07146100d3578063e0bab4c4146100f1578063edd835571461010f575b600080fd5b610081600480360381019061007c91906109e3565b61013f565b60405161008e9190610d0c565b60405180910390f35b61009f610342565b6040516100ac9190610c92565b60405180910390f35b6100bd61035a565b6040516100ca9190610c92565b60405180910390f35b6100db610372565b6040516100e89190610cad565b60405180910390f35b6100f961038a565b6040516101069190610c92565b60405180910390f35b61012960048036038101906101249190610991565b6103a2565b6040516101369190610d0c565b60405180910390f35b600061016173c02aaa39b223fe8d0a0e5c4f27ead9083c756cc2333085610546565b61019473c02aaa39b223fe8d0a0e5c4f27ead9083c756cc273e592427a0aece92de3edee1f18e0157c0586156484610766565b60006040518060a00160405280736b175474e89094c44da98b954eedeac495271d0f606473a0b86991c6218b36c1d19d4a2e9eb0ce3606eb48610bb873c02aaa39b223fe8d0a0e5c4f27ead9083c756cc26040516020016101f9959493929190610bd4565b60405160208183030381529060405281526020013373ffffffffffffffffffffffffffffffffffffffff16815260200142815260200185815260200184815250905073e592427a0aece92de3edee1f18e0157c0586156473ffffffffffffffffffffffffffffffffffffffff1663f28c0498826040518263ffffffff1660e01b81526004016102889190610cea565b602060405180830381600087803b1580156102a257600080fd5b505af11580156102b6573d6000803e3d6000fd5b505050506040513d601f19601f820116820180604052508101906102da91906109ba565b91508282101561033b5761031873c02aaa39b223fe8d0a0e5c4f27ead9083c756cc273e592427a0aece92de3edee1f18e0157c058615646000610766565b61033a73c02aaa39b223fe8d0a0e5c4f27ead9083c756cc23033858703610546565b5b5092915050565b73c02aaa39b223fe8d0a0e5c4f27ead9083c756cc281565b73a0b86991c6218b36c1d19d4a2e9eb0ce3606eb4881565b73e592427a0aece92de3edee1f18e0157c0586156481565b736b175474e89094c44da98b954eedeac495271d0f81565b60006103c473c02aaa39b223fe8d0a0e5c4f27ead9083c756cc2333085610546565b6103f773c02aaa39b223fe8d0a0e5c4f27ead9083c756cc273e592427a0aece92de3edee1f18e0157c0586156484610766565b60006040518060a0016040528073c02aaa39b223fe8d0a0e5c4f27ead9083c756cc2610bb873a0b86991c6218b36c1d19d4a2e9eb0ce3606eb486064736b175474e89094c44da98b954eedeac495271d0f60405160200161045c959493929190610c33565b60405160208183030381529060405281526020013373ffffffffffffffffffffffffffffffffffffffff1681526020014281526020018481526020016000815250905073e592427a0aece92de3edee1f18e0157c0586156473ffffffffffffffffffffffffffffffffffffffff1663c04b8d59826040518263ffffffff1660e01b81526004016104ec9190610cc8565b602060405180830381600087803b15801561050657600080fd5b505af115801561051a573d6000803e3d6000fd5b505050506040513d601f19601f8201168201806040525081019061053e91906109ba565b915050919050565b6000808573ffffffffffffffffffffffffffffffffffffffff166323b872dd60e01b868686604051602401808473ffffffffffffffffffffffffffffffffffffffff1681526020018373ffffffffffffffffffffffffffffffffffffffff1681526020018281526020019350505050604051602081830303815290604052907bffffffffffffffffffffffffffffffffffffffffffffffffffffffff19166020820180517bffffffffffffffffffffffffffffffffffffffffffffffffffffffff83818316178352505050506040518082805190602001908083835b602083106106455780518252602082019150602081019050602083039250610622565b6001836020036101000a0380198251168184511680821785525050505050509050019150506000604051808303816000865af19150503d80600081146106a7576040519150601f19603f3d011682016040523d82523d6000602084013e6106ac565b606091505b50915091508180156106ec57506000815114806106eb57508080602001905160208110156106d957600080fd5b81019080805190602001909291905050505b5b61075e576040517f08c379a00000000000000000000000000000000000000000000000000000000081526004018080602001828103825260038152602001807f535446000000000000000000000000000000000000000000000000000000000081525060200191505060405180910390fd5b505050505050565b6000808473ffffffffffffffffffffffffffffffffffffffff1663095ea7b360e01b8585604051602401808373ffffffffffffffffffffffffffffffffffffffff16815260200182815260200192505050604051602081830303815290604052907bffffffffffffffffffffffffffffffffffffffffffffffffffffffff19166020820180517bffffffffffffffffffffffffffffffffffffffffffffffffffffffff83818316178352505050506040518082805190602001908083835b602083106108475780518252602082019150602081019050602083039250610824565b6001836020036101000a0380198251168184511680821785525050505050509050019150506000604051808303816000865af19150503d80600081146108a9576040519150601f19603f3d011682016040523d82523d6000602084013e6108ae565b606091505b50915091508180156108ee57506000815114806108ed57508080602001905160208110156108db57600080fd5b81019080805190602001909291905050505b5b610960576040517f08c379a00000000000000000000000000000000000000000000000000000000081526004018080602001828103825260028152602001807f534100000000000000000000000000000000000000000000000000000000000081525060200191505060405180910390fd5b5050505050565b60008135905061097681610e50565b92915050565b60008151905061098b81610e50565b92915050565b6000602082840312156109a357600080fd5b60006109b184828501610967565b91505092915050565b6000602082840312156109cc57600080fd5b60006109da8482850161097c565b91505092915050565b600080604083850312156109f657600080fd5b6000610a0485828601610967565b9250506020610a1585828601610967565b9150509250929050565b610a2881610d43565b82525050565b610a3781610d43565b82525050565b610a4e610a4982610d43565b610de5565b82525050565b6000610a5f82610d27565b610a698185610d32565b9350610a79818560208601610db2565b610a8281610e25565b840191505092915050565b610a9681610d8e565b82525050565b600060a0830160008301518482036000860152610ab98282610a54565b9150506020830151610ace6020860182610a1f565b506040830151610ae16040860182610b9f565b506060830151610af46060860182610b9f565b506080830151610b076080860182610b9f565b508091505092915050565b600060a0830160008301518482036000860152610b2f8282610a54565b9150506020830151610b446020860182610a1f565b506040830151610b576040860182610b9f565b506060830151610b6a6060860182610b9f565b506080830151610b7d6080860182610b9f565b508091505092915050565b610b99610b9482610d75565b610e09565b82525050565b610ba881610d84565b82525050565b610bb781610d84565b82525050565b610bce610bc982610d84565b610e1b565b82525050565b6000610be08288610a3d565b601482019150610bf08287610b88565b600382019150610c008286610a3d565b601482019150610c108285610b88565b600382019150610c208284610a3d565b6014820191508190509695505050505050565b6000610c3f8288610a3d565b601482019150610c4f8287610bbd565b602082019150610c5f8286610a3d565b601482019150610c6f8285610b88565b600382019150610c7f8284610a3d565b6014820191508190509695505050505050565b6000602082019050610ca76000830184610a2e565b92915050565b6000602082019050610cc26000830184610a8d565b92915050565b60006020820190508181036000830152610ce28184610a9c565b905092915050565b60006020820190508181036000830152610d048184610b12565b905092915050565b6000602082019050610d216000830184610bae565b92915050565b600081519050919050565b600082825260208201905092915050565b6000610d4e82610d55565b9050919050565b600073ffffffffffffffffffffffffffffffffffffffff82169050919050565b600062ffffff82169050919050565b6000819050919050565b6000610d9982610da0565b9050919050565b6000610dab82610d55565b9050919050565b60005b83811015610dd0578082015181840152602081019050610db5565b83811115610ddf576000848401525b50505050565b6000610df082610df7565b9050919050565b6000610e0282610e43565b9050919050565b6000610e1482610e36565b9050919050565b6000819050919050565b6000601f19601f8301169050919050565b60008160e81b9050919050565b60008160601b9050919050565b610e5981610d84565b8114610e6457600080fd5b5056fea2646970667358221220eae20908bc74707357c600e0affc2c5dfd8af602758230ece917d9a2f70bd48c64736f6c63430007060033",
  "linkReferences": {},
  "deployedLinkReferences": {}
}